{
  "_format": "hh-sol-artifact-1",
  "contractName": "Dao",
  "sourceName": "contracts/Dao.sol",
  "abi": [
    {
      "inputs": [],
      "stateMutability": "nonpayable",
      "type": "constructor"
    },
    {
      "anonymous": false,
      "inputs": [
        {
          "indexed": false,
          "internalType": "address",
          "name": "voter",
          "type": "address"
        },
        {
          "indexed": false,
          "internalType": "enum Dao.level",
          "name": "nivel",
          "type": "uint8"
        }
      ],
      "name": "account",
      "type": "event"
    },
    {
      "anonymous": false,
      "inputs": [
        {
          "indexed": false,
          "internalType": "address",
          "name": "voter",
          "type": "address"
        }
      ],
      "name": "deleteAccount",
      "type": "event"
    },
    {
      "anonymous": false,
      "inputs": [
        {
          "indexed": false,
          "internalType": "address",
          "name": "voter",
          "type": "address"
        },
        {
          "indexed": false,
          "internalType": "uint256",
          "name": "proposal",
          "type": "uint256"
        }
      ],
      "name": "newVote",
      "type": "event"
    },
    {
      "anonymous": false,
      "inputs": [
        {
          "indexed": false,
          "internalType": "uint256",
          "name": "id",
          "type": "uint256"
        },
        {
          "indexed": false,
          "internalType": "bool",
          "name": "passed",
          "type": "bool"
        }
      ],
      "name": "proposalCount",
      "type": "event"
    },
    {
      "anonymous": false,
      "inputs": [
        {
          "indexed": false,
          "internalType": "uint256",
          "name": "id",
          "type": "uint256"
        },
        {
          "indexed": false,
          "internalType": "string",
          "name": "description",
          "type": "string"
        },
        {
          "indexed": false,
          "internalType": "uint256",
          "name": "votes",
          "type": "uint256"
        },
        {
          "indexed": false,
          "internalType": "address",
          "name": "proposer",
          "type": "address"
        }
      ],
      "name": "proposalCreated",
      "type": "event"
    },
    {
      "anonymous": false,
      "inputs": [
        {
          "indexed": false,
          "internalType": "uint256",
          "name": "id",
          "type": "uint256"
        },
        {
          "indexed": false,
          "internalType": "string",
          "name": "description",
          "type": "string"
        },
        {
          "indexed": false,
          "internalType": "uint256",
          "name": "votes",
          "type": "uint256"
        }
      ],
      "name": "proposalWin",
      "type": "event"
    },
    {
      "anonymous": false,
      "inputs": [
        {
          "indexed": false,
          "internalType": "uint256",
          "name": "id",
          "type": "uint256"
        },
        {
          "indexed": false,
          "internalType": "address",
          "name": "voter",
          "type": "address"
        }
      ],
      "name": "voter",
      "type": "event"
    },
    {
      "inputs": [
        {
          "internalType": "uint256",
          "name": "_tokenId",
          "type": "uint256"
        },
        {
          "internalType": "address",
          "name": "token_address",
          "type": "address"
        }
      ],
      "name": "addTokenId",
      "outputs": [],
      "stateMutability": "nonpayable",
      "type": "function"
    },
    {
      "inputs": [
        {
          "internalType": "address[]",
          "name": "newVoters",
          "type": "address[]"
        }
      ],
      "name": "addValidVoter",
      "outputs": [],
      "stateMutability": "nonpayable",
      "type": "function"
    },
    {
      "inputs": [],
      "name": "closeVotation",
      "outputs": [],
      "stateMutability": "nonpayable",
      "type": "function"
    },
    {
      "inputs": [],
      "name": "countProporsals",
      "outputs": [
        {
          "internalType": "uint256",
          "name": "",
          "type": "uint256"
        }
      ],
      "stateMutability": "view",
      "type": "function"
    },
    {
      "inputs": [],
      "name": "countProporsalsWinners",
      "outputs": [
        {
          "internalType": "uint256",
          "name": "",
          "type": "uint256"
        }
      ],
      "stateMutability": "view",
      "type": "function"
    },
    {
      "inputs": [
        {
          "internalType": "string",
          "name": "_description",
          "type": "string"
        }
      ],
      "name": "createProposal",
      "outputs": [],
      "stateMutability": "nonpayable",
      "type": "function"
    },
    {
      "inputs": [
        {
          "internalType": "uint256",
          "name": "_id",
          "type": "uint256"
        }
      ],
      "name": "deleteProposal",
      "outputs": [],
      "stateMutability": "nonpayable",
      "type": "function"
    },
    {
      "inputs": [],
      "name": "idProporsals",
      "outputs": [
        {
          "internalType": "uint256",
          "name": "",
          "type": "uint256"
        }
      ],
      "stateMutability": "view",
      "type": "function"
    },
    {
      "inputs": [],
      "name": "idVoter",
      "outputs": [
        {
          "internalType": "uint256",
          "name": "",
          "type": "uint256"
        }
      ],
      "stateMutability": "view",
      "type": "function"
    },
    {
      "inputs": [],
      "name": "owner",
      "outputs": [
        {
          "internalType": "address",
          "name": "",
          "type": "address"
        }
      ],
      "stateMutability": "view",
      "type": "function"
    },
    {
      "inputs": [
        {
          "internalType": "uint256",
          "name": "",
          "type": "uint256"
        }
      ],
      "name": "proposals",
      "outputs": [
        {
          "internalType": "uint256",
          "name": "id",
          "type": "uint256"
        },
        {
          "internalType": "bool",
          "name": "exists",
          "type": "bool"
        },
        {
          "internalType": "string",
          "name": "description",
          "type": "string"
        },
        {
          "internalType": "uint256",
          "name": "votes",
          "type": "uint256"
        }
      ],
      "stateMutability": "view",
      "type": "function"
    },
    {
      "inputs": [
        {
          "internalType": "uint256",
          "name": "",
          "type": "uint256"
        }
      ],
      "name": "proposalsWin",
      "outputs": [
        {
          "internalType": "uint256",
          "name": "id",
          "type": "uint256"
        },
        {
          "internalType": "bool",
          "name": "exists",
          "type": "bool"
        },
        {
          "internalType": "string",
          "name": "description",
          "type": "string"
        },
        {
          "internalType": "uint256",
          "name": "votes",
          "type": "uint256"
        }
      ],
      "stateMutability": "view",
      "type": "function"
    },
    {
      "inputs": [
        {
          "internalType": "address[]",
          "name": "oldVoters",
          "type": "address[]"
        }
      ],
      "name": "removeValidVoter",
      "outputs": [],
      "stateMutability": "nonpayable",
      "type": "function"
    },
    {
      "inputs": [
        {
          "internalType": "uint256",
          "name": "",
          "type": "uint256"
        }
      ],
      "name": "validTokens",
      "outputs": [
        {
          "internalType": "uint256",
          "name": "",
          "type": "uint256"
        }
      ],
      "stateMutability": "view",
      "type": "function"
    },
    {
      "inputs": [
        {
          "internalType": "address",
          "name": "",
          "type": "address"
        }
      ],
      "name": "validVoters",
      "outputs": [
        {
          "internalType": "address",
          "name": "",
          "type": "address"
        }
      ],
      "stateMutability": "view",
      "type": "function"
    },
    {
      "inputs": [
        {
          "internalType": "uint256",
          "name": "_id",
          "type": "uint256"
        }
      ],
      "name": "voteOnProposal",
      "outputs": [],
      "stateMutability": "nonpayable",
      "type": "function"
    },
    {
      "inputs": [
        {
          "internalType": "uint256",
          "name": "",
          "type": "uint256"
        }
      ],
      "name": "voters",
      "outputs": [
        {
          "internalType": "address",
          "name": "voter",
          "type": "address"
        },
        {
          "internalType": "uint256",
          "name": "idProposal",
          "type": "uint256"
        }
      ],
      "stateMutability": "view",
      "type": "function"
    }
  ],
  "bytecode": "0x60806040523480156200001157600080fd5b50336000806101000a81548173ffffffffffffffffffffffffffffffffffffffff021916908373ffffffffffffffffffffffffffffffffffffffff160217905550732953399124f0cbb46d2cbacd8a89cf0599974963600260006101000a81548173ffffffffffffffffffffffffffffffffffffffff021916908373ffffffffffffffffffffffffffffffffffffffff16021790555060405180602001604052807fe122e142d2966e7620ecf80b4692f2b7284a51440000000000000100000000018152506001906001620000e892919062000206565b5033600360003373ffffffffffffffffffffffffffffffffffffffff1673ffffffffffffffffffffffffffffffffffffffff16815260200190815260200160002060006101000a81548173ffffffffffffffffffffffffffffffffffffffff021916908373ffffffffffffffffffffffffffffffffffffffff160217905550600160078190555060016008819055507fb603821ef9c3bf8509fb3e419b0e0393778bc59703b101c94ad34bc898f2cfa460085433604051620001ac929190620002d7565b60405180910390a17f4f591b2ba5d964d45d42b466733c8a8781bfd97fabfa9eb3529456945d5b5add336000604051620001e8929190620002aa565b60405180910390a160006009819055506000600a81905550620003b1565b82805482825590600052602060002090810192821562000245579160200282015b828111156200024457825182559160200191906001019062000227565b5b50905062000254919062000258565b5090565b5b808211156200027357600081600090555060010162000259565b5090565b620002828162000304565b82525050565b620002938162000357565b82525050565b620002a4816200034d565b82525050565b6000604082019050620002c1600083018562000277565b620002d0602083018462000288565b9392505050565b6000604082019050620002ee600083018562000299565b620002fd602083018462000277565b9392505050565b600062000311826200032d565b9050919050565b600081905062000328826200039a565b919050565b600073ffffffffffffffffffffffffffffffffffffffff82169050919050565b6000819050919050565b6000620003648262000318565b9050919050565b7f4e487b7100000000000000000000000000000000000000000000000000000000600052602160045260246000fd5b60038110620003ae57620003ad6200036b565b5b50565b612c5b80620003c16000396000f3fe608060405234801561001057600080fd5b506004361061010a5760003560e01c8063a1d0a22a116100a2578063da58c7d911610071578063da58c7d914610295578063e579e29d146102c6578063e9d3d16a146102e4578063ef8306fe14610314578063f05d3aac146103305761010a565b8063a1d0a22a1461020e578063a3a0d5a51461022a578063add68edc1461025d578063bf7a9726146102795761010a565b80633f436a01116100de5780633f436a01146101ae57806349c2a1a6146101b85780638259d553146101d45780638da5cb5b146101f05761010a565b8062ffa9e01461010f578063013cf08b1461012d57806311e28860146101605780632f8c0af214610190575b600080fd5b61011761034e565b6040516101249190612476565b60405180910390f35b61014760048036038101906101429190611f99565b610354565b60405161015794939291906124ba565b60405180910390f35b61017a60048036038101906101759190611eda565b610429565b60405161018791906122a9565b60405180910390f35b61019861045c565b6040516101a59190612476565b60405180910390f35b6101b6610462565b005b6101d260048036038101906101cd9190611f50565b61074f565b005b6101ee60048036038101906101e99190611f99565b6108bc565b005b6101f8610c3e565b60405161020591906122a9565b60405180910390f35b61022860048036038101906102239190611f07565b610c62565b005b610244600480360381019061023f9190611f99565b610f07565b60405161025494939291906124ba565b60405180910390f35b61027760048036038101906102729190611f99565b610fdc565b005b610293600480360381019061028e9190611f07565b6112cc565b005b6102af60048036038101906102aa9190611f99565b611654565b6040516102bd9291906122ed565b60405180910390f35b6102ce6116a8565b6040516102db9190612476565b60405180910390f35b6102fe60048036038101906102f99190611f99565b6116ae565b60405161030b9190612476565b60405180910390f35b61032e60048036038101906103299190611ff3565b6116d2565b005b6103386118b6565b6040516103459190612476565b60405180910390f35b600a5481565b6005818154811061036457600080fd5b90600052602060002090600402016000915090508060000154908060010160009054906101000a900460ff16908060020180546103a090612726565b80601f01602080910402602001604051908101604052809291908181526020018280546103cc90612726565b80156104195780601f106103ee57610100808354040283529160200191610419565b820191906000526020600020905b8154815290600101906020018083116103fc57829003601f168201915b5050505050908060030154905084565b60036020528060005260406000206000915054906101000a900473ffffffffffffffffffffffffffffffffffffffff1681565b60085481565b61046b336118bc565b6104aa576040517f08c379a00000000000000000000000000000000000000000000000000000000081526004016104a190612376565b60405180910390fd5b6000600580549050116104f2576040517f08c379a00000000000000000000000000000000000000000000000000000000081526004016104e990612396565b60405180910390fd5b6000805b60058054905081101561056c5781600582815481106105185761051761288e565b5b906000526020600020906004020160030154111561055957600581815481106105445761054361288e565b5b90600052602060002090600402016003015491505b808061056490612789565b9150506104f6565b5060005b6005805490508110156107175781600582815481106105925761059161288e565b5b9060005260206000209060040201600301541415610704576004600582815481106105c0576105bf61288e565b5b90600052602060002090600402019080600181540180825580915050600190039060005260206000209060040201600090919091909150600082015481600001556001820160009054906101000a900460ff168160010160006101000a81548160ff021916908315150217905550600282018160020190805461064290612726565b61064d929190611aea565b506003820154816003015550507f0446b4f534d0211f664c280222ac0f6d5268c0e4b8f5d1471630106ed626c9c26005828154811061068f5761068e61288e565b5b906000526020600020906004020160000154600583815481106106b5576106b461288e565b5b9060005260206000209060040201600201600584815481106106da576106d961288e565b5b9060005260206000209060040201600301546040516106fb93929190612552565b60405180910390a15b808061070f90612789565b915050610570565b50600660006107269190611b77565b600560006107349190611b9b565b600580549050600981905550600480549050600a8190555050565b610758336118bc565b610797576040517f08c379a000000000000000000000000000000000000000000000000000000000815260040161078e906123b6565b60405180910390fd5b61079f611bbf565b6007548160000181815250506001816020019015159081151581525050818160400181905250600760008154809291906107d890612789565b919050555060008160600181815250507f3ec21697eb8018b62928e5f290d2bccf3af51e8b6cdf71fceab712977647bba98160000151838360600151336040516108259493929190612506565b60405180910390a160058190806001815401808255809150506001900390600052602060002090600402016000909190919091506000820151816000015560208201518160010160006101000a81548160ff021916908315150217905550604082015181600201908051906020019061089f929190611be9565b506060820151816003015550506005805490506009819055505050565b6108c5336118bc565b610904576040517f08c379a00000000000000000000000000000000000000000000000000000000081526004016108fb906123f6565b60405180910390fd5b61090d816119ca565b61094c576040517f08c379a000000000000000000000000000000000000000000000000000000000815260040161094390612416565b60405180910390fd5b60005b600580549050811015610ab95781600582815481106109715761097061288e565b5b9060005260206000209060040201600001541415610aa6576005600160058054905061099d9190612643565b815481106109ae576109ad61288e565b5b9060005260206000209060040201600582815481106109d0576109cf61288e565b5b9060005260206000209060040201600082015481600001556001820160009054906101000a900460ff168160010160006101000a81548160ff0219169083151502179055506002820181600201908054610a2990612726565b610a34929190611aea565b50600382015481600301559050506005805480610a5457610a5361285f565b5b60019003818190600052602060002090600402016000808201600090556001820160006101000a81549060ff0219169055600282016000610a959190611c6f565b600382016000905550509055610ab9565b8080610ab190612789565b91505061094f565b5060005b600680549050811015610c2e578160068281548110610adf57610ade61288e565b5b9060005260206000209060020201600101541415610c1b5760066001600680549050610b0b9190612643565b81548110610b1c57610b1b61288e565b5b906000526020600020906002020160068281548110610b3e57610b3d61288e565b5b90600052602060002090600202016000820160009054906101000a900473ffffffffffffffffffffffffffffffffffffffff168160000160006101000a81548173ffffffffffffffffffffffffffffffffffffffff021916908373ffffffffffffffffffffffffffffffffffffffff160217905550600182015481600101559050506006805480610bd257610bd161285f565b5b6001900381819060005260206000209060020201600080820160006101000a81549073ffffffffffffffffffffffffffffffffffffffff02191690556001820160009055505090555b8080610c2690612789565b915050610abd565b5060058054905060098190555050565b60008054906101000a900473ffffffffffffffffffffffffffffffffffffffff1681565b610c6b336118bc565b610caa576040517f08c379a0000000000000000000000000000000000000000000000000000000008152600401610ca190612336565b60405180910390fd5b60005b8151811015610f0357818181518110610cc957610cc861288e565b5b602002602001015173ffffffffffffffffffffffffffffffffffffffff1660036000848481518110610cfe57610cfd61288e565b5b602002602001015173ffffffffffffffffffffffffffffffffffffffff1673ffffffffffffffffffffffffffffffffffffffff16815260200190815260200160002060009054906101000a900473ffffffffffffffffffffffffffffffffffffffff1673ffffffffffffffffffffffffffffffffffffffff1614610ef057818181518110610d8f57610d8e61288e565b5b602002602001015160036000848481518110610dae57610dad61288e565b5b602002602001015173ffffffffffffffffffffffffffffffffffffffff1673ffffffffffffffffffffffffffffffffffffffff16815260200190815260200160002060006101000a81548173ffffffffffffffffffffffffffffffffffffffff021916908373ffffffffffffffffffffffffffffffffffffffff16021790555060086000815480929190610e4190612789565b91905055507fb603821ef9c3bf8509fb3e419b0e0393778bc59703b101c94ad34bc898f2cfa4600854838381518110610e7d57610e7c61288e565b5b6020026020010151604051610e93929190612491565b60405180910390a17f4f591b2ba5d964d45d42b466733c8a8781bfd97fabfa9eb3529456945d5b5add828281518110610ecf57610ece61288e565b5b60200260200101516002604051610ee79291906122c4565b60405180910390a15b8080610efb90612789565b915050610cad565b5050565b60048181548110610f1757600080fd5b90600052602060002090600402016000915090508060000154908060010160009054906101000a900460ff1690806002018054610f5390612726565b80601f0160208091040260200160405190810160405280929190818152602001828054610f7f90612726565b8015610fcc5780601f10610fa157610100808354040283529160200191610fcc565b820191906000526020600020905b815481529060010190602001808311610faf57829003601f168201915b5050505050908060030154905084565b3373ffffffffffffffffffffffffffffffffffffffff16600360003373ffffffffffffffffffffffffffffffffffffffff1673ffffffffffffffffffffffffffffffffffffffff16815260200190815260200160002060009054906101000a900473ffffffffffffffffffffffffffffffffffffffff1673ffffffffffffffffffffffffffffffffffffffff16146110a9576040517f08c379a00000000000000000000000000000000000000000000000000000000081526004016110a090612356565b60405180910390fd5b6110b2816119ca565b6110f1576040517f08c379a00000000000000000000000000000000000000000000000000000000081526004016110e890612416565b60405180910390fd5b6110fa33611a34565b611139576040517f08c379a000000000000000000000000000000000000000000000000000000000815260040161113090612456565b60405180910390fd5b60005b6005805490508110156111c557816005828154811061115e5761115d61288e565b5b90600052602060002090600402016000015414156111b2576005818154811061118a5761118961288e565b5b906000526020600020906004020160030160008154809291906111ac90612789565b91905055505b80806111bd90612789565b91505061113c565b506111ce611caf565b8181602001818152505033816000019073ffffffffffffffffffffffffffffffffffffffff16908173ffffffffffffffffffffffffffffffffffffffff1681525050600681908060018154018082558091505060019003906000526020600020906002020160009091909190915060008201518160000160006101000a81548173ffffffffffffffffffffffffffffffffffffffff021916908373ffffffffffffffffffffffffffffffffffffffff1602179055506020820151816001015550507f1a6a8a65ed2c2326ce1bbc6781faf147de39c5f1853c8ae35e2ef13d60b76b6233836040516112c09291906122ed565b60405180910390a15050565b6112d5336118bc565b611314576040517f08c379a000000000000000000000000000000000000000000000000000000000815260040161130b906123d6565b60405180910390fd5b60005b8151811015611650578181815181106113335761133261288e565b5b602002602001015173ffffffffffffffffffffffffffffffffffffffff16600360008484815181106113685761136761288e565b5b602002602001015173ffffffffffffffffffffffffffffffffffffffff1673ffffffffffffffffffffffffffffffffffffffff16815260200190815260200160002060009054906101000a900473ffffffffffffffffffffffffffffffffffffffff1673ffffffffffffffffffffffffffffffffffffffff16141561163d57600360008383815181106113fe576113fd61288e565b5b602002602001015173ffffffffffffffffffffffffffffffffffffffff1673ffffffffffffffffffffffffffffffffffffffff16815260200190815260200160002060006101000a81549073ffffffffffffffffffffffffffffffffffffffff021916905560005b60018054905081101561163b576001600260009054906101000a900473ffffffffffffffffffffffffffffffffffffffff1673ffffffffffffffffffffffffffffffffffffffff1662fdd58e8585815181106114c5576114c461288e565b5b6020026020010151600185815481106114e1576114e061288e565b5b90600052602060002001546040518363ffffffff1660e01b81526004016115099291906122ed565b60206040518083038186803b15801561152157600080fd5b505afa158015611535573d6000803e3d6000fd5b505050506040513d601f19601f820116820180604052508101906115599190611fc6565b106116285760018080805490506115709190612643565b815481106115815761158061288e565b5b9060005260206000200154600183815481106115a05761159f61288e565b5b906000526020600020018190555060018054806115c0576115bf61285f565b5b600190038181906000526020600020016000905590557f4c1b64cb82af84098d75b70e4fe59fb06215548462ebb219fa835e82d90faaa783838151811061160a5761160961288e565b5b602002602001015160405161161f91906122a9565b60405180910390a15b808061163390612789565b915050611466565b505b808061164890612789565b915050611317565b5050565b6006818154811061166457600080fd5b90600052602060002090600202016000915090508060000160009054906101000a900473ffffffffffffffffffffffffffffffffffffffff16908060010154905082565b60095481565b600181815481106116be57600080fd5b906000526020600020016000915090505481565b60008054906101000a900473ffffffffffffffffffffffffffffffffffffffff1673ffffffffffffffffffffffffffffffffffffffff163373ffffffffffffffffffffffffffffffffffffffff1614611760576040517f08c379a000000000000000000000000000000000000000000000000000000000815260040161175790612436565b60405180910390fd5b6001600260009054906101000a900473ffffffffffffffffffffffffffffffffffffffff1673ffffffffffffffffffffffffffffffffffffffff1662fdd58e83856040518363ffffffff1660e01b81526004016117be9291906122ed565b60206040518083038186803b1580156117d657600080fd5b505afa1580156117ea573d6000803e3d6000fd5b505050506040513d601f19601f8201168201806040525081019061180e9190611fc6565b101561184f576040517f08c379a000000000000000000000000000000000000000000000000000000000815260040161184690612316565b60405180910390fd5b60018290806001815401808255809150506001900390600052602060002001600090919091909150557f4f591b2ba5d964d45d42b466733c8a8781bfd97fabfa9eb3529456945d5b5add3360026040516118aa9291906122c4565b60405180910390a15050565b60075481565b600080600090505b6001805490508110156119bf576001600260009054906101000a900473ffffffffffffffffffffffffffffffffffffffff1673ffffffffffffffffffffffffffffffffffffffff1662fdd58e85600185815481106119255761192461288e565b5b90600052602060002001546040518363ffffffff1660e01b815260040161194d9291906122ed565b60206040518083038186803b15801561196557600080fd5b505afa158015611979573d6000803e3d6000fd5b505050506040513d601f19601f8201168201806040525081019061199d9190611fc6565b106119ac5760019150506119c5565b80806119b790612789565b9150506118c4565b50600090505b919050565b600080600090505b600580549050811015611a295782600582815481106119f4576119f361288e565b5b9060005260206000209060040201600001541415611a16576001915050611a2f565b8080611a2190612789565b9150506119d2565b50600090505b919050565b600080600090505b600680549050811015611adf578273ffffffffffffffffffffffffffffffffffffffff1660068281548110611a7457611a7361288e565b5b906000526020600020906002020160000160009054906101000a900473ffffffffffffffffffffffffffffffffffffffff1673ffffffffffffffffffffffffffffffffffffffff161415611acc576000915050611ae5565b8080611ad790612789565b915050611a3c565b50600190505b919050565b828054611af690612726565b90600052602060002090601f016020900481019282611b185760008555611b66565b82601f10611b295780548555611b66565b82800160010185558215611b6657600052602060002091601f016020900482015b82811115611b65578254825591600101919060010190611b4a565b5b509050611b739190611cdf565b5090565b5080546000825560020290600052602060002090810190611b989190611cfc565b50565b5080546000825560040290600052602060002090810190611bbc9190611d42565b50565b60405180608001604052806000815260200160001515815260200160608152602001600081525090565b828054611bf590612726565b90600052602060002090601f016020900481019282611c175760008555611c5e565b82601f10611c3057805160ff1916838001178555611c5e565b82800160010185558215611c5e579182015b82811115611c5d578251825591602001919060010190611c42565b5b509050611c6b9190611cdf565b5090565b508054611c7b90612726565b6000825580601f10611c8d5750611cac565b601f016020900490600052602060002090810190611cab9190611cdf565b5b50565b6040518060400160405280600073ffffffffffffffffffffffffffffffffffffffff168152602001600081525090565b5b80821115611cf8576000816000905550600101611ce0565b5090565b5b80821115611d3e57600080820160006101000a81549073ffffffffffffffffffffffffffffffffffffffff0219169055600182016000905550600201611cfd565b5090565b5b80821115611d89576000808201600090556001820160006101000a81549060ff0219169055600282016000611d789190611c6f565b600382016000905550600401611d43565b5090565b6000611da0611d9b846125b5565b612590565b90508083825260208201905082856020860282011115611dc357611dc26128f1565b5b60005b85811015611df35781611dd98882611e3f565b845260208401935060208301925050600181019050611dc6565b5050509392505050565b6000611e10611e0b846125e1565b612590565b905082815260208101848484011115611e2c57611e2b6128f6565b5b611e378482856126e4565b509392505050565b600081359050611e4e81612bf7565b92915050565b600082601f830112611e6957611e686128ec565b5b8135611e79848260208601611d8d565b91505092915050565b600082601f830112611e9757611e966128ec565b5b8135611ea7848260208601611dfd565b91505092915050565b600081359050611ebf81612c0e565b92915050565b600081519050611ed481612c0e565b92915050565b600060208284031215611ef057611eef612900565b5b6000611efe84828501611e3f565b91505092915050565b600060208284031215611f1d57611f1c612900565b5b600082013567ffffffffffffffff811115611f3b57611f3a6128fb565b5b611f4784828501611e54565b91505092915050565b600060208284031215611f6657611f65612900565b5b600082013567ffffffffffffffff811115611f8457611f836128fb565b5b611f9084828501611e82565b91505092915050565b600060208284031215611faf57611fae612900565b5b6000611fbd84828501611eb0565b91505092915050565b600060208284031215611fdc57611fdb612900565b5b6000611fea84828501611ec5565b91505092915050565b6000806040838503121561200a57612009612900565b5b600061201885828601611eb0565b925050602061202985828601611e3f565b9150509250929050565b61203c81612677565b82525050565b61204b81612689565b82525050565b61205a816126d2565b82525050565b600061206b82612627565b6120758185612632565b93506120858185602086016126f3565b61208e81612905565b840191505092915050565b600081546120a681612726565b6120b08186612632565b945060018216600081146120cb57600181146120dd57612110565b60ff1983168652602086019350612110565b6120e685612612565b60005b83811015612108578154818901526001820191506020810190506120e9565b808801955050505b50505092915050565b6000612126603183612632565b915061213182612916565b604082019050919050565b6000612149603483612632565b915061215482612965565b604082019050919050565b600061216c601d83612632565b9150612177826129b4565b602082019050919050565b600061218f603683612632565b915061219a826129dd565b604082019050919050565b60006121b2601983612632565b91506121bd82612a2c565b602082019050919050565b60006121d5603783612632565b91506121e082612a55565b604082019050919050565b60006121f8603583612632565b915061220382612aa4565b604082019050919050565b600061221b603a83612632565b915061222682612af3565b604082019050919050565b600061223e601883612632565b915061224982612b42565b602082019050919050565b6000612261602583612632565b915061226c82612b6b565b604082019050919050565b6000612284600a83612632565b915061228f82612bba565b602082019050919050565b6122a3816126c8565b82525050565b60006020820190506122be6000830184612033565b92915050565b60006040820190506122d96000830185612033565b6122e66020830184612051565b9392505050565b60006040820190506123026000830185612033565b61230f602083018461229a565b9392505050565b6000602082019050818103600083015261232f81612119565b9050919050565b6000602082019050818103600083015261234f8161213c565b9050919050565b6000602082019050818103600083015261236f8161215f565b9050919050565b6000602082019050818103600083015261238f81612182565b9050919050565b600060208201905081810360008301526123af816121a5565b9050919050565b600060208201905081810360008301526123cf816121c8565b9050919050565b600060208201905081810360008301526123ef816121eb565b9050919050565b6000602082019050818103600083015261240f8161220e565b9050919050565b6000602082019050818103600083015261242f81612231565b9050919050565b6000602082019050818103600083015261244f81612254565b9050919050565b6000602082019050818103600083015261246f81612277565b9050919050565b600060208201905061248b600083018461229a565b92915050565b60006040820190506124a6600083018561229a565b6124b36020830184612033565b9392505050565b60006080820190506124cf600083018761229a565b6124dc6020830186612042565b81810360408301526124ee8185612060565b90506124fd606083018461229a565b95945050505050565b600060808201905061251b600083018761229a565b818103602083015261252d8186612060565b905061253c604083018561229a565b6125496060830184612033565b95945050505050565b6000606082019050612567600083018661229a565b81810360208301526125798185612099565b9050612588604083018461229a565b949350505050565b600061259a6125ab565b90506125a68282612758565b919050565b6000604051905090565b600067ffffffffffffffff8211156125d0576125cf6128bd565b5b602082029050602081019050919050565b600067ffffffffffffffff8211156125fc576125fb6128bd565b5b61260582612905565b9050602081019050919050565b60008190508160005260206000209050919050565b600081519050919050565b600082825260208201905092915050565b600061264e826126c8565b9150612659836126c8565b92508282101561266c5761266b6127d2565b5b828203905092915050565b6000612682826126a8565b9050919050565b60008115159050919050565b60008190506126a382612be3565b919050565b600073ffffffffffffffffffffffffffffffffffffffff82169050919050565b6000819050919050565b60006126dd82612695565b9050919050565b82818337600083830152505050565b60005b838110156127115780820151818401526020810190506126f6565b83811115612720576000848401525b50505050565b6000600282049050600182168061273e57607f821691505b6020821081141561275257612751612830565b5b50919050565b61276182612905565b810181811067ffffffffffffffff821117156127805761277f6128bd565b5b80604052505050565b6000612794826126c8565b91507fffffffffffffffffffffffffffffffffffffffffffffffffffffffffffffffff8214156127c7576127c66127d2565b5b600182019050919050565b7f4e487b7100000000000000000000000000000000000000000000000000000000600052601160045260246000fd5b7f4e487b7100000000000000000000000000000000000000000000000000000000600052602160045260246000fd5b7f4e487b7100000000000000000000000000000000000000000000000000000000600052602260045260246000fd5b7f4e487b7100000000000000000000000000000000000000000000000000000000600052603160045260246000fd5b7f4e487b7100000000000000000000000000000000000000000000000000000000600052603260045260246000fd5b7f4e487b7100000000000000000000000000000000000000000000000000000000600052604160045260246000fd5b600080fd5b600080fd5b600080fd5b600080fd5b600080fd5b6000601f19601f8301169050919050565b7f456c20746f6b656e206e6f20636f72726573706f6e64652061206c612063756560008201527f6e74612070726f706f7263696f6e616461000000000000000000000000000000602082015250565b7f536f6c6f207573756172696f73206475656e6f732064656c204e46542070756560008201527f64656e206167726567617220766f74616e746573000000000000000000000000602082015250565b7f4e6f207469656e6573207065726d69736f73207061726120766f746172000000600082015250565b7f536f6c6f207573756172696f73206475656e6f732064656c204e46542070756560008201527f64656e20636572726172206c6120766f746163696f6e00000000000000000000602082015250565b7f4e6f206861792070726f70756573746173206372656164617300000000000000600082015250565b7f536f6c6f207573756172696f73206475656e6f732064656c204e46542070756560008201527f64656e20637265617220756e612070726f707565737461000000000000000000602082015250565b7f536f6c6f207573756172696f73206475656e6f732064656c204e46542070756560008201527f64656e20656c696d696e617220766f74616e7465730000000000000000000000602082015250565b7f536f6c6f207573756172696f73206475656e6f732064656c204e46542070756560008201527f64656e20656c696d696e617220756e612070726f707565737461000000000000602082015250565b7f457374612070726f707565737461206e6f206578697374650000000000000000600082015250565b7f536f6c616d656e7465204e454c53454e2070756564652061677265676172207460008201527f6f6b656e73000000000000000000000000000000000000000000000000000000602082015250565b7f596120766f746173746500000000000000000000000000000000000000000000600082015250565b60038110612bf457612bf3612801565b5b50565b612c0081612677565b8114612c0b57600080fd5b50565b612c17816126c8565b8114612c2257600080fd5b5056fea2646970667358221220af9075880d930781df2ff488d5d6b5baca9715979de7926b60aedb0d077c362264736f6c63430008070033",
  "linkReferences": {},
  "deployedLinkReferences": {}
}